{
  "contractName": "CarpoolContract",
  "abi": [
    {
      "inputs": [],
      "stateMutability": "nonpayable",
      "type": "constructor"
    },
    {
      "anonymous": false,
      "inputs": [
        {
          "indexed": true,
          "internalType": "address",
          "name": "passenger",
          "type": "address"
        },
        {
          "indexed": true,
          "internalType": "address",
          "name": "driver",
          "type": "address"
        },
        {
          "indexed": false,
          "internalType": "string",
          "name": "destination",
          "type": "string"
        },
        {
          "indexed": false,
          "internalType": "uint256",
          "name": "price",
          "type": "uint256"
        }
      ],
      "name": "RideBooked",
      "type": "event"
    },
    {
      "anonymous": false,
      "inputs": [
        {
          "components": [
            {
              "internalType": "address",
              "name": "driver",
              "type": "address"
            },
            {
              "internalType": "string",
              "name": "boarding",
              "type": "string"
            },
            {
              "internalType": "string",
              "name": "destination",
              "type": "string"
            },
            {
              "internalType": "uint16",
              "name": "price",
              "type": "uint16"
            },
            {
              "internalType": "bool",
              "name": "isAvailable",
              "type": "bool"
            },
            {
              "internalType": "string",
              "name": "city",
              "type": "string"
            },
            {
              "internalType": "uint8",
              "name": "maxPassengerCount",
              "type": "uint8"
            },
            {
              "internalType": "uint16",
              "name": "inTime",
              "type": "uint16"
            },
            {
              "internalType": "uint16",
              "name": "outTime",
              "type": "uint16"
            },
            {
              "internalType": "uint32",
              "name": "date",
              "type": "uint32"
            }
          ],
          "indexed": false,
          "internalType": "struct CarpoolContract.Ride",
          "name": "ride",
          "type": "tuple"
        }
      ],
      "name": "RideRegistered",
      "type": "event"
    },
    {
      "anonymous": false,
      "inputs": [
        {
          "components": [
            {
              "internalType": "address",
              "name": "driver",
              "type": "address"
            },
            {
              "internalType": "string",
              "name": "boarding",
              "type": "string"
            },
            {
              "internalType": "string",
              "name": "destination",
              "type": "string"
            },
            {
              "internalType": "uint16",
              "name": "price",
              "type": "uint16"
            },
            {
              "internalType": "bool",
              "name": "isAvailable",
              "type": "bool"
            },
            {
              "internalType": "string",
              "name": "city",
              "type": "string"
            },
            {
              "internalType": "uint8",
              "name": "maxPassengerCount",
              "type": "uint8"
            },
            {
              "internalType": "uint16",
              "name": "inTime",
              "type": "uint16"
            },
            {
              "internalType": "uint16",
              "name": "outTime",
              "type": "uint16"
            },
            {
              "internalType": "uint32",
              "name": "date",
              "type": "uint32"
            }
          ],
          "indexed": false,
          "internalType": "struct CarpoolContract.Ride[]",
          "name": "ride",
          "type": "tuple[]"
        }
      ],
      "name": "SearchRideLog",
      "type": "event"
    },
    {
      "anonymous": false,
      "inputs": [
        {
          "indexed": true,
          "internalType": "address",
          "name": "userAddress",
          "type": "address"
        },
        {
          "indexed": false,
          "internalType": "string",
          "name": "name",
          "type": "string"
        },
        {
          "indexed": false,
          "internalType": "string",
          "name": "gender",
          "type": "string"
        },
        {
          "indexed": false,
          "internalType": "uint16",
          "name": "id",
          "type": "uint16"
        },
        {
          "indexed": false,
          "internalType": "string",
          "name": "userCity",
          "type": "string"
        }
      ],
      "name": "UserRegistered",
      "type": "event"
    },
    {
      "anonymous": false,
      "inputs": [
        {
          "indexed": true,
          "internalType": "address",
          "name": "userAddress",
          "type": "address"
        },
        {
          "indexed": false,
          "internalType": "string",
          "name": "name",
          "type": "string"
        },
        {
          "indexed": false,
          "internalType": "string",
          "name": "gender",
          "type": "string"
        },
        {
          "indexed": false,
          "internalType": "uint16",
          "name": "id",
          "type": "uint16"
        },
        {
          "indexed": false,
          "internalType": "string",
          "name": "contactNo",
          "type": "string"
        }
      ],
      "name": "dataLoggedIn",
      "type": "event"
    },
    {
      "inputs": [
        {
          "internalType": "uint256",
          "name": "",
          "type": "uint256"
        },
        {
          "internalType": "uint256",
          "name": "",
          "type": "uint256"
        }
      ],
      "name": "arrayOfArrayOfRides",
      "outputs": [
        {
          "internalType": "address",
          "name": "driver",
          "type": "address"
        },
        {
          "internalType": "string",
          "name": "boarding",
          "type": "string"
        },
        {
          "internalType": "string",
          "name": "destination",
          "type": "string"
        },
        {
          "internalType": "uint16",
          "name": "price",
          "type": "uint16"
        },
        {
          "internalType": "bool",
          "name": "isAvailable",
          "type": "bool"
        },
        {
          "internalType": "string",
          "name": "city",
          "type": "string"
        },
        {
          "internalType": "uint8",
          "name": "maxPassengerCount",
          "type": "uint8"
        },
        {
          "internalType": "uint16",
          "name": "inTime",
          "type": "uint16"
        },
        {
          "internalType": "uint16",
          "name": "outTime",
          "type": "uint16"
        },
        {
          "internalType": "uint32",
          "name": "date",
          "type": "uint32"
        }
      ],
      "stateMutability": "view",
      "type": "function"
    },
    {
      "inputs": [
        {
          "internalType": "string",
          "name": "",
          "type": "string"
        }
      ],
      "name": "mapDateCityCodeToInt",
      "outputs": [
        {
          "internalType": "uint16",
          "name": "",
          "type": "uint16"
        }
      ],
      "stateMutability": "view",
      "type": "function"
    },
    {
      "inputs": [
        {
          "internalType": "string",
          "name": "",
          "type": "string"
        },
        {
          "internalType": "uint256",
          "name": "",
          "type": "uint256"
        }
      ],
      "name": "mapDateTimeToRideArray",
      "outputs": [
        {
          "internalType": "address",
          "name": "driver",
          "type": "address"
        },
        {
          "internalType": "string",
          "name": "boarding",
          "type": "string"
        },
        {
          "internalType": "string",
          "name": "destination",
          "type": "string"
        },
        {
          "internalType": "uint16",
          "name": "price",
          "type": "uint16"
        },
        {
          "internalType": "bool",
          "name": "isAvailable",
          "type": "bool"
        },
        {
          "internalType": "string",
          "name": "city",
          "type": "string"
        },
        {
          "internalType": "uint8",
          "name": "maxPassengerCount",
          "type": "uint8"
        },
        {
          "internalType": "uint16",
          "name": "inTime",
          "type": "uint16"
        },
        {
          "internalType": "uint16",
          "name": "outTime",
          "type": "uint16"
        },
        {
          "internalType": "uint32",
          "name": "date",
          "type": "uint32"
        }
      ],
      "stateMutability": "view",
      "type": "function"
    },
    {
      "inputs": [],
      "name": "owner",
      "outputs": [
        {
          "internalType": "address",
          "name": "",
          "type": "address"
        }
      ],
      "stateMutability": "view",
      "type": "function"
    },
    {
      "inputs": [
        {
          "internalType": "address",
          "name": "",
          "type": "address"
        }
      ],
      "name": "passengers",
      "outputs": [
        {
          "internalType": "bool",
          "name": "",
          "type": "bool"
        }
      ],
      "stateMutability": "view",
      "type": "function"
    },
    {
      "inputs": [],
      "name": "totalUsers",
      "outputs": [
        {
          "internalType": "uint16",
          "name": "",
          "type": "uint16"
        }
      ],
      "stateMutability": "view",
      "type": "function"
    },
    {
      "inputs": [
        {
          "internalType": "address",
          "name": "",
          "type": "address"
        }
      ],
      "name": "users",
      "outputs": [
        {
          "internalType": "address",
          "name": "userAddress",
          "type": "address"
        },
        {
          "internalType": "string",
          "name": "userName",
          "type": "string"
        },
        {
          "internalType": "string",
          "name": "userGender",
          "type": "string"
        },
        {
          "internalType": "string",
          "name": "userContactNo",
          "type": "string"
        },
        {
          "internalType": "uint16",
          "name": "userId",
          "type": "uint16"
        },
        {
          "internalType": "uint256",
          "name": "userPassword",
          "type": "uint256"
        },
        {
          "internalType": "uint256",
          "name": "userTotalRidesOffered",
          "type": "uint256"
        },
        {
          "internalType": "string",
          "name": "userCity",
          "type": "string"
        }
      ],
      "stateMutability": "view",
      "type": "function"
    },
    {
      "inputs": [],
      "name": "getOwner",
      "outputs": [
        {
          "internalType": "address",
          "name": "",
          "type": "address"
        }
      ],
      "stateMutability": "view",
      "type": "function"
    },
    {
      "inputs": [],
      "name": "getTotalUsers",
      "outputs": [
        {
          "internalType": "uint16",
          "name": "",
          "type": "uint16"
        }
      ],
      "stateMutability": "view",
      "type": "function"
    },
    {
      "inputs": [
        {
          "internalType": "address",
          "name": "_userAddress",
          "type": "address"
        }
      ],
      "name": "getUserName",
      "outputs": [
        {
          "internalType": "string",
          "name": "",
          "type": "string"
        }
      ],
      "stateMutability": "view",
      "type": "function"
    },
    {
      "inputs": [
        {
          "internalType": "string",
          "name": "_name",
          "type": "string"
        },
        {
          "internalType": "string",
          "name": "_gender",
          "type": "string"
        },
        {
          "internalType": "string",
          "name": "_userContactNo",
          "type": "string"
        },
        {
          "internalType": "uint256",
          "name": "_userPassword",
          "type": "uint256"
        },
        {
          "internalType": "string",
          "name": "_userCity",
          "type": "string"
        }
      ],
      "name": "registerMe",
      "outputs": [],
      "stateMutability": "nonpayable",
      "type": "function"
    },
    {
      "inputs": [
        {
          "internalType": "uint256",
          "name": "_userPassword",
          "type": "uint256"
        }
      ],
      "name": "logIn",
      "outputs": [
        {
          "internalType": "uint8",
          "name": "",
          "type": "uint8"
        },
        {
          "internalType": "string",
          "name": "",
          "type": "string"
        },
        {
          "internalType": "string",
          "name": "",
          "type": "string"
        },
        {
          "internalType": "address",
          "name": "",
          "type": "address"
        },
        {
          "internalType": "string",
          "name": "",
          "type": "string"
        },
        {
          "internalType": "uint256",
          "name": "",
          "type": "uint256"
        }
      ],
      "stateMutability": "view",
      "type": "function"
    },
    {
      "inputs": [
        {
          "internalType": "string",
          "name": "_city",
          "type": "string"
        },
        {
          "internalType": "string",
          "name": "_destination",
          "type": "string"
        },
        {
          "internalType": "string",
          "name": "_boarding",
          "type": "string"
        },
        {
          "internalType": "uint16",
          "name": "_price",
          "type": "uint16"
        },
        {
          "internalType": "uint32",
          "name": "_date",
          "type": "uint32"
        },
        {
          "internalType": "uint8",
          "name": "_maxPassengerCount",
          "type": "uint8"
        },
        {
          "internalType": "uint16",
          "name": "_inTime",
          "type": "uint16"
        },
        {
          "internalType": "uint16",
          "name": "_outTime",
          "type": "uint16"
        },
        {
          "internalType": "string",
          "name": "_cityDateCode",
          "type": "string"
        }
      ],
      "name": "registerRide",
      "outputs": [],
      "stateMutability": "nonpayable",
      "type": "function"
    },
    {
      "inputs": [
        {
          "internalType": "string",
          "name": "_cityDateCode",
          "type": "string"
        }
      ],
      "name": "searchRides",
      "outputs": [
        {
          "internalType": "uint8",
          "name": "",
          "type": "uint8"
        },
        {
          "internalType": "string",
          "name": "",
          "type": "string"
        }
      ],
      "stateMutability": "nonpayable",
      "type": "function"
    }
  ],
  "bytecode": "0x60806040526000600260006101000a81548161ffff021916908361ffff1602179055503480156200002f57600080fd5b50336000806101000a81548173ffffffffffffffffffffffffffffffffffffffff021916908373ffffffffffffffffffffffffffffffffffffffff1602179055506040518061010001604052803373ffffffffffffffffffffffffffffffffffffffff1681526020016040518060400160405280600f81526020017f4272616a656e6472612053756d616e000000000000000000000000000000000081525081526020016040518060400160405280600481526020017f4d616c650000000000000000000000000000000000000000000000000000000081525081526020016040518060400160405280601981526020017f732e6272616a656e6472613037303740676d61696c2e636f6d000000000000008152508152602001600061ffff16815260200160008152602001600081526020016040518060400160405280600881526020017f6775776168617469000000000000000000000000000000000000000000000000815250815250600460003373ffffffffffffffffffffffffffffffffffffffff1673ffffffffffffffffffffffffffffffffffffffff16815260200190815260200160002060008201518160000160006101000a81548173ffffffffffffffffffffffffffffffffffffffff021916908373ffffffffffffffffffffffffffffffffffffffff160217905550602082015181600101908162000238919062000558565b50604082015181600201908162000250919062000558565b50606082015181600301908162000268919062000558565b5060808201518160040160006101000a81548161ffff021916908361ffff16021790555060a0820151816005015560c0820151816006015560e0820151816007019081620002b7919062000558565b5090505060008060146101000a81548161ffff021916908361ffff1602179055506200063f565b600081519050919050565b7f4e487b7100000000000000000000000000000000000000000000000000000000600052604160045260246000fd5b7f4e487b7100000000000000000000000000000000000000000000000000000000600052602260045260246000fd5b600060028204905060018216806200036057607f821691505b60208210810362000376576200037562000318565b5b50919050565b60008190508160005260206000209050919050565b60006020601f8301049050919050565b600082821b905092915050565b600060088302620003e07fffffffffffffffffffffffffffffffffffffffffffffffffffffffffffffffff82620003a1565b620003ec8683620003a1565b95508019841693508086168417925050509392505050565b6000819050919050565b6000819050919050565b600062000439620004336200042d8462000404565b6200040e565b62000404565b9050919050565b6000819050919050565b620004558362000418565b6200046d620004648262000440565b848454620003ae565b825550505050565b600090565b6200048462000475565b620004918184846200044a565b505050565b5b81811015620004b957620004ad6000826200047a565b60018101905062000497565b5050565b601f8211156200050857620004d2816200037c565b620004dd8462000391565b81016020851015620004ed578190505b62000505620004fc8562000391565b83018262000496565b50505b505050565b600082821c905092915050565b60006200052d600019846008026200050d565b1980831691505092915050565b60006200054883836200051a565b9150826002028217905092915050565b6200056382620002de565b67ffffffffffffffff8111156200057f576200057e620002e9565b5b6200058b825462000347565b62000598828285620004bd565b600060209050601f831160018114620005d05760008415620005bb578287015190505b620005c785826200053a565b86555062000637565b601f198416620005e0866200037c565b60005b828110156200060a57848901518255600182019150602085019450602081019050620005e3565b868310156200062a578489015162000626601f8916826200051a565b8355505b6001600288020188555050505b505050505050565b612f39806200064f6000396000f3fe608060405234801561001057600080fd5b50600436106100ea5760003560e01c8063893d20e81161008c578063a87430ba11610066578063a87430ba14610289578063bff1f9e1146102c0578063ce164fdd146102de578063d84f55ee1461030e576100ea565b8063893d20e81461022f5780638da5cb5b1461024d5780639be572f61461026b576100ea565b806332ddddad116100c857806332ddddad146101795780635768cb1e146101b25780637b16e2b9146101e25780637d6b528014610213576100ea565b8063103f2ea4146100ef5780631803fbde146101245780632a6b736614610140575b600080fd5b61010960048036038101906101049190611b6c565b61033e565b60405161011b96959493929190611c95565b60405180910390f35b61013e60048036038101906101399190611e40565b610777565b005b61015a60048036038101906101559190611f2b565b610a80565b6040516101709a99989796959493929190611fc2565b60405180910390f35b610193600480360381019061018e9190612073565b610d09565b6040516101a99a99989796959493929190611fc2565b60405180910390f35b6101cc60048036038101906101c791906120cf565b610f9c565b6040516101d99190612118565b60405180910390f35b6101fc60048036038101906101f791906120cf565b610fd3565b60405161020a929190612133565b60405180910390f35b61022d600480360381019061022891906121e7565b6113e0565b005b610237611720565b6040516102449190612321565b60405180910390f35b610255611749565b6040516102629190612321565b60405180910390f35b61027361176d565b6040516102809190612118565b60405180910390f35b6102a3600480360381019061029e9190612368565b611784565b6040516102b7989796959493929190612395565b60405180910390f35b6102c8611a1a565b6040516102d59190612118565b60405180910390f35b6102f860048036038101906102f39190612368565b611a2e565b604051610305919061242f565b60405180910390f35b61032860048036038101906103239190612368565b611a4e565b604051610335919061244a565b60405180910390f35b600060608060006060600086600460003373ffffffffffffffffffffffffffffffffffffffff1673ffffffffffffffffffffffffffffffffffffffff16815260200190815260200160002060050154036106b557606f600460003373ffffffffffffffffffffffffffffffffffffffff1673ffffffffffffffffffffffffffffffffffffffff168152602001908152602001600020600101600460003373ffffffffffffffffffffffffffffffffffffffff1673ffffffffffffffffffffffffffffffffffffffff168152602001908152602001600020600701600460003373ffffffffffffffffffffffffffffffffffffffff1673ffffffffffffffffffffffffffffffffffffffff16815260200190815260200160002060000160009054906101000a900473ffffffffffffffffffffffffffffffffffffffff16600460003373ffffffffffffffffffffffffffffffffffffffff1673ffffffffffffffffffffffffffffffffffffffff168152602001908152602001600020600201600460003373ffffffffffffffffffffffffffffffffffffffff1673ffffffffffffffffffffffffffffffffffffffff1681526020019081526020016000206006015484805461050c9061249b565b80601f01602080910402602001604051908101604052809291908181526020018280546105389061249b565b80156105855780601f1061055a57610100808354040283529160200191610585565b820191906000526020600020905b81548152906001019060200180831161056857829003601f168201915b505050505094508380546105989061249b565b80601f01602080910402602001604051908101604052809291908181526020018280546105c49061249b565b80156106115780601f106105e657610100808354040283529160200191610611565b820191906000526020600020905b8154815290600101906020018083116105f457829003601f168201915b505050505093508180546106249061249b565b80601f01602080910402602001604051908101604052809291908181526020018280546106509061249b565b801561069d5780601f106106725761010080835404028352916020019161069d565b820191906000526020600020905b81548152906001019060200180831161068057829003601f168201915b5050505050915095509550955095509550955061076e565b60003360006040518060400160405280600181526020017f200000000000000000000000000000000000000000000000000000000000000081525091906040518060400160405280600781526020017f6e6f20636974790000000000000000000000000000000000000000000000000081525091906040518060400160405280600181526020017f2000000000000000000000000000000000000000000000000000000000000000815250909550955095509550955095505b91939550919395565b600460003373ffffffffffffffffffffffffffffffffffffffff1673ffffffffffffffffffffffffffffffffffffffff16815260200190815260200160002060000160009054906101000a900473ffffffffffffffffffffffffffffffffffffffff1673ffffffffffffffffffffffffffffffffffffffff163373ffffffffffffffffffffffffffffffffffffffff1603610847576040517f08c379a000000000000000000000000000000000000000000000000000000000815260040161083e90612518565b60405180910390fd5b6040518061010001604052803373ffffffffffffffffffffffffffffffffffffffff1681526020018681526020018581526020018481526020016001600060149054906101000a900461ffff1661089e9190612567565b61ffff1681526020018381526020016000815260200182815250600460003373ffffffffffffffffffffffffffffffffffffffff1673ffffffffffffffffffffffffffffffffffffffff16815260200190815260200160002060008201518160000160006101000a81548173ffffffffffffffffffffffffffffffffffffffff021916908373ffffffffffffffffffffffffffffffffffffffff16021790555060208201518160010190816109539190612749565b5060408201518160020190816109699190612749565b50606082015181600301908161097f9190612749565b5060808201518160040160006101000a81548161ffff021916908361ffff16021790555060a0820151816005015560c0820151816006015560e08201518160070190816109cc9190612749565b509050506001600060149054906101000a900461ffff166109ed9190612567565b600060146101000a81548161ffff021916908361ffff1602179055503373ffffffffffffffffffffffffffffffffffffffff167fef20323e2bbefd8ef0fcdde7905a59968babf1b0b8d1b3867cbe75d1c8b1f25c86866001600060149054906101000a900461ffff16610a609190612567565b85604051610a71949392919061281b565b60405180910390a25050505050565b60018281548110610a9057600080fd5b906000526020600020018181548110610aa857600080fd5b9060005260206000209060060201600091509150508060000160009054906101000a900473ffffffffffffffffffffffffffffffffffffffff1690806001018054610af29061249b565b80601f0160208091040260200160405190810160405280929190818152602001828054610b1e9061249b565b8015610b6b5780601f10610b4057610100808354040283529160200191610b6b565b820191906000526020600020905b815481529060010190602001808311610b4e57829003601f168201915b505050505090806002018054610b809061249b565b80601f0160208091040260200160405190810160405280929190818152602001828054610bac9061249b565b8015610bf95780601f10610bce57610100808354040283529160200191610bf9565b820191906000526020600020905b815481529060010190602001808311610bdc57829003601f168201915b5050505050908060030160009054906101000a900461ffff16908060030160029054906101000a900460ff1690806004018054610c359061249b565b80601f0160208091040260200160405190810160405280929190818152602001828054610c619061249b565b8015610cae5780601f10610c8357610100808354040283529160200191610cae565b820191906000526020600020905b815481529060010190602001808311610c9157829003601f168201915b5050505050908060050160009054906101000a900460ff16908060050160019054906101000a900461ffff16908060050160039054906101000a900461ffff16908060050160059054906101000a900463ffffffff1690508a565b6006828051602081018201805184825260208301602085012081835280955050505050508181548110610d3b57600080fd5b9060005260206000209060060201600091509150508060000160009054906101000a900473ffffffffffffffffffffffffffffffffffffffff1690806001018054610d859061249b565b80601f0160208091040260200160405190810160405280929190818152602001828054610db19061249b565b8015610dfe5780601f10610dd357610100808354040283529160200191610dfe565b820191906000526020600020905b815481529060010190602001808311610de157829003601f168201915b505050505090806002018054610e139061249b565b80601f0160208091040260200160405190810160405280929190818152602001828054610e3f9061249b565b8015610e8c5780601f10610e6157610100808354040283529160200191610e8c565b820191906000526020600020905b815481529060010190602001808311610e6f57829003601f168201915b5050505050908060030160009054906101000a900461ffff16908060030160029054906101000a900460ff1690806004018054610ec89061249b565b80601f0160208091040260200160405190810160405280929190818152602001828054610ef49061249b565b8015610f415780601f10610f1657610100808354040283529160200191610f41565b820191906000526020600020905b815481529060010190602001808311610f2457829003601f168201915b5050505050908060050160009054906101000a900460ff16908060050160019054906101000a900461ffff16908060050160039054906101000a900461ffff16908060050160059054906101000a900463ffffffff1690508a565b6005818051602081018201805184825260208301602085012081835280955050505050506000915054906101000a900461ffff1681565b600060606000600684604051610fe991906128b1565b9081526020016040518091039020805480602002602001604051908101604052809291908181526020016000905b828210156113145783829060005260206000209060060201604051806101400160405290816000820160009054906101000a900473ffffffffffffffffffffffffffffffffffffffff1673ffffffffffffffffffffffffffffffffffffffff1673ffffffffffffffffffffffffffffffffffffffff1681526020016001820180546110a19061249b565b80601f01602080910402602001604051908101604052809291908181526020018280546110cd9061249b565b801561111a5780601f106110ef5761010080835404028352916020019161111a565b820191906000526020600020905b8154815290600101906020018083116110fd57829003601f168201915b505050505081526020016002820180546111339061249b565b80601f016020809104026020016040519081016040528092919081815260200182805461115f9061249b565b80156111ac5780601f10611181576101008083540402835291602001916111ac565b820191906000526020600020905b81548152906001019060200180831161118f57829003601f168201915b505050505081526020016003820160009054906101000a900461ffff1661ffff1661ffff1681526020016003820160029054906101000a900460ff161515151581526020016004820180546112009061249b565b80601f016020809104026020016040519081016040528092919081815260200182805461122c9061249b565b80156112795780601f1061124e57610100808354040283529160200191611279565b820191906000526020600020905b81548152906001019060200180831161125c57829003601f168201915b505050505081526020016005820160009054906101000a900460ff1660ff1660ff1681526020016005820160019054906101000a900461ffff1661ffff1661ffff1681526020016005820160039054906101000a900461ffff1661ffff1661ffff1681526020016005820160059054906101000a900463ffffffff1663ffffffff1663ffffffff168152505081526020019060010190611017565b50505050905060008151111561139d577f413007e4f6a9b51ad457c0741b048f7b298c926af7ec86a6a75802dff70c6c1f816040516113539190612b07565b60405180910390a160016040518060400160405280601381526020017f72696465732061726520617661696c61626c650000000000000000000000000081525092509250506113db565b60006040518060400160405280601781526020017f726964657320617265206e6f7420617661696c61626c6500000000000000000081525092509250505b915091565b60008661ffff1611611427576040517f08c379a000000000000000000000000000000000000000000000000000000000815260040161141e90612b75565b60405180910390fd5b60006040518061014001604052803373ffffffffffffffffffffffffffffffffffffffff1681526020018981526020018a81526020018861ffff1681526020016001151581526020018b81526020018660ff1681526020018561ffff1681526020018461ffff1681526020018763ffffffff1681525090506006826040516114af91906128b1565b908152602001604051809103902081908060018154018082558091505060019003906000526020600020906006020160009091909190915060008201518160000160006101000a81548173ffffffffffffffffffffffffffffffffffffffff021916908373ffffffffffffffffffffffffffffffffffffffff16021790555060208201518160010190816115439190612749565b5060408201518160020190816115599190612749565b5060608201518160030160006101000a81548161ffff021916908361ffff16021790555060808201518160030160026101000a81548160ff02191690831515021790555060a08201518160040190816115b29190612749565b5060c08201518160050160006101000a81548160ff021916908360ff16021790555060e08201518160050160016101000a81548161ffff021916908361ffff1602179055506101008201518160050160036101000a81548161ffff021916908361ffff1602179055506101208201518160050160056101000a81548163ffffffff021916908363ffffffff16021790555050506001600460003373ffffffffffffffffffffffffffffffffffffffff1673ffffffffffffffffffffffffffffffffffffffff16815260200190815260200160002060060160008282546116989190612b95565b925050819055507ff20d4c78d5b4b0e6202f7ab6650ac101e54571230dfe4b27a78afa3211e3635c6006836040516116d091906128b1565b90815260200160405180910390206000815481106116f1576116f0612bc9565b5b906000526020600020906006020160405161170c9190612ee1565b60405180910390a150505050505050505050565b60008060009054906101000a900473ffffffffffffffffffffffffffffffffffffffff16905090565b60008054906101000a900473ffffffffffffffffffffffffffffffffffffffff1681565b60008060149054906101000a900461ffff16905090565b60046020528060005260406000206000915090508060000160009054906101000a900473ffffffffffffffffffffffffffffffffffffffff16908060010180546117cd9061249b565b80601f01602080910402602001604051908101604052809291908181526020018280546117f99061249b565b80156118465780601f1061181b57610100808354040283529160200191611846565b820191906000526020600020905b81548152906001019060200180831161182957829003601f168201915b50505050509080600201805461185b9061249b565b80601f01602080910402602001604051908101604052809291908181526020018280546118879061249b565b80156118d45780601f106118a9576101008083540402835291602001916118d4565b820191906000526020600020905b8154815290600101906020018083116118b757829003601f168201915b5050505050908060030180546118e99061249b565b80601f01602080910402602001604051908101604052809291908181526020018280546119159061249b565b80156119625780601f1061193757610100808354040283529160200191611962565b820191906000526020600020905b81548152906001019060200180831161194557829003601f168201915b5050505050908060040160009054906101000a900461ffff16908060050154908060060154908060070180546119979061249b565b80601f01602080910402602001604051908101604052809291908181526020018280546119c39061249b565b8015611a105780601f106119e557610100808354040283529160200191611a10565b820191906000526020600020905b8154815290600101906020018083116119f357829003601f168201915b5050505050905088565b600060149054906101000a900461ffff1681565b60036020528060005260406000206000915054906101000a900460ff1681565b6060600460008373ffffffffffffffffffffffffffffffffffffffff1673ffffffffffffffffffffffffffffffffffffffff1681526020019081526020016000206001018054611a9d9061249b565b80601f0160208091040260200160405190810160405280929190818152602001828054611ac99061249b565b8015611b165780601f10611aeb57610100808354040283529160200191611b16565b820191906000526020600020905b815481529060010190602001808311611af957829003601f168201915b50505050509050919050565b6000604051905090565b600080fd5b600080fd5b6000819050919050565b611b4981611b36565b8114611b5457600080fd5b50565b600081359050611b6681611b40565b92915050565b600060208284031215611b8257611b81611b2c565b5b6000611b9084828501611b57565b91505092915050565b600060ff82169050919050565b611baf81611b99565b82525050565b600081519050919050565b600082825260208201905092915050565b60005b83811015611bef578082015181840152602081019050611bd4565b60008484015250505050565b6000601f19601f8301169050919050565b6000611c1782611bb5565b611c218185611bc0565b9350611c31818560208601611bd1565b611c3a81611bfb565b840191505092915050565b600073ffffffffffffffffffffffffffffffffffffffff82169050919050565b6000611c7082611c45565b9050919050565b611c8081611c65565b82525050565b611c8f81611b36565b82525050565b600060c082019050611caa6000830189611ba6565b8181036020830152611cbc8188611c0c565b90508181036040830152611cd08187611c0c565b9050611cdf6060830186611c77565b8181036080830152611cf18185611c0c565b9050611d0060a0830184611c86565b979650505050505050565b600080fd5b600080fd5b7f4e487b7100000000000000000000000000000000000000000000000000000000600052604160045260246000fd5b611d4d82611bfb565b810181811067ffffffffffffffff82111715611d6c57611d6b611d15565b5b80604052505050565b6000611d7f611b22565b9050611d8b8282611d44565b919050565b600067ffffffffffffffff821115611dab57611daa611d15565b5b611db482611bfb565b9050602081019050919050565b82818337600083830152505050565b6000611de3611dde84611d90565b611d75565b905082815260208101848484011115611dff57611dfe611d10565b5b611e0a848285611dc1565b509392505050565b600082601f830112611e2757611e26611d0b565b5b8135611e37848260208601611dd0565b91505092915050565b600080600080600060a08688031215611e5c57611e5b611b2c565b5b600086013567ffffffffffffffff811115611e7a57611e79611b31565b5b611e8688828901611e12565b955050602086013567ffffffffffffffff811115611ea757611ea6611b31565b5b611eb388828901611e12565b945050604086013567ffffffffffffffff811115611ed457611ed3611b31565b5b611ee088828901611e12565b9350506060611ef188828901611b57565b925050608086013567ffffffffffffffff811115611f1257611f11611b31565b5b611f1e88828901611e12565b9150509295509295909350565b60008060408385031215611f4257611f41611b2c565b5b6000611f5085828601611b57565b9250506020611f6185828601611b57565b9150509250929050565b600061ffff82169050919050565b611f8281611f6b565b82525050565b60008115159050919050565b611f9d81611f88565b82525050565b600063ffffffff82169050919050565b611fbc81611fa3565b82525050565b600061014082019050611fd8600083018d611c77565b8181036020830152611fea818c611c0c565b90508181036040830152611ffe818b611c0c565b905061200d606083018a611f79565b61201a6080830189611f94565b81810360a083015261202c8188611c0c565b905061203b60c0830187611ba6565b61204860e0830186611f79565b612056610100830185611f79565b612064610120830184611fb3565b9b9a5050505050505050505050565b6000806040838503121561208a57612089611b2c565b5b600083013567ffffffffffffffff8111156120a8576120a7611b31565b5b6120b485828601611e12565b92505060206120c585828601611b57565b9150509250929050565b6000602082840312156120e5576120e4611b2c565b5b600082013567ffffffffffffffff81111561210357612102611b31565b5b61210f84828501611e12565b91505092915050565b600060208201905061212d6000830184611f79565b92915050565b60006040820190506121486000830185611ba6565b818103602083015261215a8184611c0c565b90509392505050565b61216c81611f6b565b811461217757600080fd5b50565b60008135905061218981612163565b92915050565b61219881611fa3565b81146121a357600080fd5b50565b6000813590506121b58161218f565b92915050565b6121c481611b99565b81146121cf57600080fd5b50565b6000813590506121e1816121bb565b92915050565b60008060008060008060008060006101208a8c03121561220a57612209611b2c565b5b60008a013567ffffffffffffffff81111561222857612227611b31565b5b6122348c828d01611e12565b99505060208a013567ffffffffffffffff81111561225557612254611b31565b5b6122618c828d01611e12565b98505060408a013567ffffffffffffffff81111561228257612281611b31565b5b61228e8c828d01611e12565b975050606061229f8c828d0161217a565b96505060806122b08c828d016121a6565b95505060a06122c18c828d016121d2565b94505060c06122d28c828d0161217a565b93505060e06122e38c828d0161217a565b9250506101008a013567ffffffffffffffff81111561230557612304611b31565b5b6123118c828d01611e12565b9150509295985092959850929598565b60006020820190506123366000830184611c77565b92915050565b61234581611c65565b811461235057600080fd5b50565b6000813590506123628161233c565b92915050565b60006020828403121561237e5761237d611b2c565b5b600061238c84828501612353565b91505092915050565b6000610100820190506123ab600083018b611c77565b81810360208301526123bd818a611c0c565b905081810360408301526123d18189611c0c565b905081810360608301526123e58188611c0c565b90506123f46080830187611f79565b61240160a0830186611c86565b61240e60c0830185611c86565b81810360e08301526124208184611c0c565b90509998505050505050505050565b60006020820190506124446000830184611f94565b92915050565b600060208201905081810360008301526124648184611c0c565b905092915050565b7f4e487b7100000000000000000000000000000000000000000000000000000000600052602260045260246000fd5b600060028204905060018216806124b357607f821691505b6020821081036124c6576124c561246c565b5b50919050565b7f796f752061726520616c7265616479206f757220757365720000000000000000600082015250565b6000612502601883611bc0565b915061250d826124cc565b602082019050919050565b60006020820190508181036000830152612531816124f5565b9050919050565b7f4e487b7100000000000000000000000000000000000000000000000000000000600052601160045260246000fd5b600061257282611f6b565b915061257d83611f6b565b9250828201905061ffff81111561259757612596612538565b5b92915050565b60008190508160005260206000209050919050565b60006020601f8301049050919050565b600082821b905092915050565b6000600883026125ff7fffffffffffffffffffffffffffffffffffffffffffffffffffffffffffffffff826125c2565b61260986836125c2565b95508019841693508086168417925050509392505050565b6000819050919050565b600061264661264161263c84611b36565b612621565b611b36565b9050919050565b6000819050919050565b6126608361262b565b61267461266c8261264d565b8484546125cf565b825550505050565b600090565b61268961267c565b612694818484612657565b505050565b5b818110156126b8576126ad600082612681565b60018101905061269a565b5050565b601f8211156126fd576126ce8161259d565b6126d7846125b2565b810160208510156126e6578190505b6126fa6126f2856125b2565b830182612699565b50505b505050565b600082821c905092915050565b600061272060001984600802612702565b1980831691505092915050565b6000612739838361270f565b9150826002028217905092915050565b61275282611bb5565b67ffffffffffffffff81111561276b5761276a611d15565b5b612775825461249b565b6127808282856126bc565b600060209050601f8311600181146127b357600084156127a1578287015190505b6127ab858261272d565b865550612813565b601f1984166127c18661259d565b60005b828110156127e9578489015182556001820191506020850194506020810190506127c4565b868310156128065784890151612802601f89168261270f565b8355505b6001600288020188555050505b505050505050565b600060808201905081810360008301526128358187611c0c565b905081810360208301526128498186611c0c565b90506128586040830185611f79565b818103606083015261286a8184611c0c565b905095945050505050565b600081905092915050565b600061288b82611bb5565b6128958185612875565b93506128a5818560208601611bd1565b80840191505092915050565b60006128bd8284612880565b915081905092915050565b600081519050919050565b600082825260208201905092915050565b6000819050602082019050919050565b6128fd81611c65565b82525050565b600082825260208201905092915050565b600061291f82611bb5565b6129298185612903565b9350612939818560208601611bd1565b61294281611bfb565b840191505092915050565b61295681611f6b565b82525050565b61296581611f88565b82525050565b61297481611b99565b82525050565b61298381611fa3565b82525050565b6000610140830160008301516129a260008601826128f4565b50602083015184820360208601526129ba8282612914565b915050604083015184820360408601526129d48282612914565b91505060608301516129e9606086018261294d565b5060808301516129fc608086018261295c565b5060a083015184820360a0860152612a148282612914565b91505060c0830151612a2960c086018261296b565b5060e0830151612a3c60e086018261294d565b50610100830151612a5161010086018261294d565b50610120830151612a6661012086018261297a565b508091505092915050565b6000612a7d8383612989565b905092915050565b6000602082019050919050565b6000612a9d826128c8565b612aa781856128d3565b935083602082028501612ab9856128e4565b8060005b85811015612af55784840389528151612ad68582612a71565b9450612ae183612a85565b925060208a01995050600181019050612abd565b50829750879550505050505092915050565b60006020820190508181036000830152612b218184612a92565b905092915050565b7f5072696365206d7573742062652067726561746572207468616e207a65726f00600082015250565b6000612b5f601f83611bc0565b9150612b6a82612b29565b602082019050919050565b60006020820190508181036000830152612b8e81612b52565b9050919050565b6000612ba082611b36565b9150612bab83611b36565b9250828201905080821115612bc357612bc2612538565b5b92915050565b7f4e487b7100000000000000000000000000000000000000000000000000000000600052603260045260246000fd5b60008160001c9050919050565b600073ffffffffffffffffffffffffffffffffffffffff82169050919050565b6000612c38612c3383612bf8565b612c05565b9050919050565b60008154612c4c8161249b565b612c568186612903565b94506001821660008114612c715760018114612c8757612cba565b60ff198316865281151560200286019350612cba565b612c908561259d565b60005b83811015612cb257815481890152600182019150602081019050612c93565b808801955050505b50505092915050565b600061ffff82169050919050565b6000612ce4612cdf83612bf8565b612cc3565b9050919050565b60008160101c9050919050565b600060ff82169050919050565b6000612d18612d1383612ceb565b612cf8565b9050919050565b600060ff82169050919050565b6000612d3f612d3a83612bf8565b612d1f565b9050919050565b60008160081c9050919050565b6000612d66612d6183612d46565b612cc3565b9050919050565b60008160181c9050919050565b6000612d8d612d8883612d6d565b612cc3565b9050919050565b60008160281c9050919050565b600063ffffffff82169050919050565b6000612dc4612dbf83612d94565b612da1565b9050919050565b600061014083016000808401549050612de381612c25565b612df060008701826128f4565b50600184018583036020870152612e078382612c3f565b925050600284018583036040870152612e208382612c3f565b92505060038401549050612e3381612cd1565b612e40606087018261294d565b50612e4a81612d05565b612e57608087018261295c565b506004840185830360a0870152612e6e8382612c3f565b92505060058401549050612e8181612d2c565b612e8e60c087018261296b565b50612e9881612d53565b612ea560e087018261294d565b50612eaf81612d7a565b612ebd61010087018261294d565b50612ec781612db1565b612ed561012087018261297a565b50819250505092915050565b60006020820190508181036000830152612efb8184612dcb565b90509291505056fea2646970667358221220fcf6ffb9399c76522c03dc13d9087a21a151507990246f4b5dcf95d7921321be64736f6c63430008110033",
  "immutableReferences": {},
  "source": "// SPDX-License-Identifier: MIT\r\npragma solidity ^0.8.7;\r\n\r\ncontract CarpoolContract {\r\n    address public owner;\r\n    uint16 public totalUsers;\r\n    Ride[][] public arrayOfArrayOfRides;\r\n\r\n    uint16 indexesForRide = 0;\r\n    // will manage users\r\n    struct Users {\r\n        address userAddress;\r\n        string userName;\r\n        string userGender;\r\n        string userContactNo;\r\n        uint16 userId;\r\n        uint256 userPassword;\r\n        uint userTotalRidesOffered;\r\n        string userCity;\r\n    }\r\n\r\n    struct Ride {\r\n        address driver;\r\n        string boarding;\r\n        string destination;\r\n        uint16 price;\r\n        bool isAvailable;\r\n        string city;\r\n        uint8 maxPassengerCount;\r\n        uint16 inTime;\r\n        uint16 outTime;\r\n        uint32 date;\r\n    }\r\n\r\n    mapping(address => bool) public passengers;\r\n    // mapping(address => Ride) public rides;\r\n    mapping(address => Users) public users;\r\n    // mapping string eg guwahati07072002 perticular city perticular data available rides\r\n    mapping(string => uint16) public mapDateCityCodeToInt;\r\n    mapping(string => Ride[]) public mapDateTimeToRideArray;\r\n\r\n    constructor() {\r\n        //initalizing contract as 1st user\r\n        owner = msg.sender;\r\n        users[msg.sender] = Users({\r\n            userName: \"Brajendra Suman\",\r\n            userGender: \"Male\",\r\n            userContactNo: \"s.brajendra0707@gmail.com\",\r\n            userAddress: msg.sender,\r\n            userId: 0,\r\n            userTotalRidesOffered: 0,\r\n            userPassword: 0,\r\n            userCity: \"guwahati\"\r\n            // assigned total users to 0\r\n        });\r\n        totalUsers = 0;\r\n    }\r\n\r\n    event UserRegistered(\r\n        address indexed userAddress,\r\n        string name,\r\n        string gender,\r\n        uint16 id,\r\n        string userCity\r\n    );\r\n\r\n    event dataLoggedIn(\r\n        address indexed userAddress,\r\n        string name,\r\n        string gender,\r\n        uint16 id,\r\n        string contactNo\r\n    );\r\n\r\n    event RideRegistered(Ride ride);\r\n    event RideBooked(\r\n        address indexed passenger,\r\n        address indexed driver,\r\n        string destination,\r\n        uint256 price\r\n    );\r\n    event SearchRideLog(Ride[] ride);\r\n\r\n    function getOwner() public view returns (address) {\r\n        return owner;\r\n    }\r\n\r\n    function getTotalUsers() public view returns (uint16) {\r\n        return totalUsers;\r\n    }\r\n\r\n    function getUserName(\r\n        address _userAddress\r\n    ) public view returns (string memory) {\r\n        return users[_userAddress].userName;\r\n    }\r\n\r\n    function registerMe(\r\n        string memory _name,\r\n        string memory _gender,\r\n        string memory _userContactNo,\r\n        uint256 _userPassword,\r\n        string memory _userCity\r\n    ) public {\r\n        require(\r\n            msg.sender != users[msg.sender].userAddress,\r\n            \"you are already our user\"\r\n        );\r\n\r\n        users[msg.sender] = Users({\r\n            userName: _name,\r\n            userGender: _gender,\r\n            userContactNo: _userContactNo,\r\n            userAddress: msg.sender,\r\n            userId: totalUsers + 1,\r\n            userPassword: _userPassword,\r\n            userTotalRidesOffered: 0,\r\n            userCity: _userCity\r\n        });\r\n\r\n        totalUsers = totalUsers + 1;\r\n\r\n        emit UserRegistered(\r\n            msg.sender,\r\n            _name,\r\n            _gender,\r\n            totalUsers + 1,\r\n            _userCity\r\n        );\r\n    }\r\n\r\n    // mapping Users to address for unique registration from one address\r\n\r\n    // testing\r\n\r\n    // login function will check is user a user\r\n\r\n    function logIn(\r\n        uint256 _userPassword\r\n    )\r\n        public\r\n        view\r\n        returns (\r\n            uint8,\r\n            string memory,\r\n            string memory,\r\n            address,\r\n            string memory,\r\n            uint256\r\n        )\r\n    {\r\n        // require(users[_userAddress].userId );\r\n\r\n        if (users[msg.sender].userPassword == _userPassword) {\r\n            return (\r\n                111,\r\n                users[msg.sender].userName,\r\n                users[msg.sender].userCity,\r\n                users[msg.sender].userAddress,\r\n                users[msg.sender].userGender,\r\n                users[msg.sender].userTotalRidesOffered\r\n            );\r\n        } else {\r\n            return (0, \" \", \"no city\", msg.sender, \" \", 0);\r\n        }\r\n    }\r\n\r\n    function registerRide(\r\n        string memory _city,\r\n        string memory _destination,\r\n        string memory _boarding,\r\n        uint16 _price,\r\n        uint32 _date,\r\n        uint8 _maxPassengerCount,\r\n        uint16 _inTime,\r\n        uint16 _outTime,\r\n        string memory _cityDateCode\r\n    ) public {\r\n        require(_price > 0, \"Price must be greater than zero\");\r\n        // require(\r\n        //     !rides[msg.sender].isAvailable,\r\n        //     \"You have already registered a ride\"\r\n        // );\r\n\r\n        Ride memory inst = Ride(\r\n            msg.sender,\r\n            _boarding,\r\n            _destination,\r\n            _price,\r\n            true,\r\n            _city,\r\n            _maxPassengerCount,\r\n            _inTime,\r\n            _outTime,\r\n            _date\r\n        );\r\n\r\n        mapDateTimeToRideArray[_cityDateCode].push(inst);\r\n        users[msg.sender].userTotalRidesOffered += 1;\r\n\r\n        emit RideRegistered(mapDateTimeToRideArray[_cityDateCode][0]);\r\n    }\r\n\r\n    function searchRides(\r\n        string memory _cityDateCode\r\n    ) public returns (uint8, string memory) {\r\n        Ride[] memory ride = mapDateTimeToRideArray[_cityDateCode];\r\n        if (ride.length > 0) {\r\n            \r\n            emit SearchRideLog(ride);\r\n            return (1, \"rides are available\");\r\n\r\n        } else {\r\n            return (0, \"rides are not available\");\r\n        }\r\n\r\n        // Ride[] inst = Ride[];\r\n    }\r\n\r\n    //     function bookRide(address _driver) public payable {\r\n    //         require(\r\n    //             rides[_driver].isAvailable,\r\n    //             \"Driver is not offering a ride or already booked\"\r\n    //         );\r\n    //         require(msg.value <= rides[_driver].price, \"Insufficient payment\");\r\n    // \r\n    //         rides[_driver].isAvailable = false;\r\n    //         passengers[_driver] = true;\r\n    // \r\n    //         emit RideBooked(\r\n    //             msg.sender,\r\n    //             _driver,\r\n    //             rides[_driver].destination,\r\n    //             rides[_driver].price\r\n    //         );\r\n    //     }\r\n}\r\n",
  "sourcePath": "C:\\Users\\braje\\Desktop\\projects\\P2P-Car-Pooling\\smart-contract\\contracts\\CarpoolContract.sol",
  "compiler": {
    "name": "solc",
    "version": "0.8.17+commit.8df45f5f.Emscripten.clang"
  },
  "schemaVersion": "3.4.15",
  "updatedAt": "2023-08-22T08:22:18.343Z",
  "devdoc": {
    "kind": "dev",
    "methods": {},
    "version": 1
  },
  "userdoc": {
    "kind": "user",
    "methods": {},
    "version": 1
  }
}