{
  "contractName": "CarpoolContract",
  "abi": [
    {
      "anonymous": false,
      "inputs": [
        {
          "indexed": true,
          "internalType": "address",
          "name": "passenger",
          "type": "address"
        },
        {
          "indexed": true,
          "internalType": "address",
          "name": "driver",
          "type": "address"
        },
        {
          "indexed": false,
          "internalType": "string",
          "name": "destination",
          "type": "string"
        },
        {
          "indexed": false,
          "internalType": "uint256",
          "name": "price",
          "type": "uint256"
        }
      ],
      "name": "RideBooked",
      "type": "event"
    },
    {
      "anonymous": false,
      "inputs": [
        {
          "indexed": true,
          "internalType": "address",
          "name": "driver",
          "type": "address"
        },
        {
          "indexed": false,
          "internalType": "string",
          "name": "boarding",
          "type": "string"
        },
        {
          "indexed": false,
          "internalType": "string",
          "name": "destination",
          "type": "string"
        },
        {
          "indexed": false,
          "internalType": "uint256",
          "name": "price",
          "type": "uint256"
        }
      ],
      "name": "RideRegistered",
      "type": "event"
    },
    {
      "inputs": [
        {
          "internalType": "address",
          "name": "",
          "type": "address"
        }
      ],
      "name": "passengers",
      "outputs": [
        {
          "internalType": "bool",
          "name": "",
          "type": "bool"
        }
      ],
      "stateMutability": "view",
      "type": "function",
      "constant": true
    },
    {
      "inputs": [
        {
          "internalType": "address",
          "name": "",
          "type": "address"
        }
      ],
      "name": "rides",
      "outputs": [
        {
          "internalType": "address",
          "name": "driver",
          "type": "address"
        },
        {
          "internalType": "string",
          "name": "boarding",
          "type": "string"
        },
        {
          "internalType": "string",
          "name": "destination",
          "type": "string"
        },
        {
          "internalType": "uint256",
          "name": "price",
          "type": "uint256"
        },
        {
          "internalType": "bool",
          "name": "isAvailable",
          "type": "bool"
        }
      ],
      "stateMutability": "view",
      "type": "function",
      "constant": true
    },
    {
      "inputs": [
        {
          "internalType": "string",
          "name": "_destination",
          "type": "string"
        },
        {
          "internalType": "string",
          "name": "_boarding",
          "type": "string"
        },
        {
          "internalType": "uint256",
          "name": "_price",
          "type": "uint256"
        }
      ],
      "name": "registerRide",
      "outputs": [],
      "stateMutability": "nonpayable",
      "type": "function"
    },
    {
      "inputs": [
        {
          "internalType": "address",
          "name": "_driver",
          "type": "address"
        }
      ],
      "name": "bookRide",
      "outputs": [],
      "stateMutability": "payable",
      "type": "function",
      "payable": true
    },
    {
      "inputs": [],
      "name": "withdrawPayment",
      "outputs": [],
      "stateMutability": "nonpayable",
      "type": "function"
    }
  ],
  "bytecode": "0x608060405234801561001057600080fd5b506114e6806100206000396000f3fe60806040526004361061004a5760003560e01c80631e8d3dcb1461004f578063505a0efa14610090578063a118babd146100ac578063ce164fdd146100c3578063ed0addbf14610100575b600080fd5b34801561005b57600080fd5b5061007660048036038101906100719190610a57565b610129565b604051610087959493929190610b57565b60405180910390f35b6100aa60048036038101906100a59190610a57565b61029c565b005b3480156100b857600080fd5b506100c161054a565b005b3480156100cf57600080fd5b506100ea60048036038101906100e59190610a57565b61077e565b6040516100f79190610bb8565b60405180910390f35b34801561010c57600080fd5b5061012760048036038101906101229190610d34565b61079e565b005b60006020528060005260406000206000915090508060000160009054906101000a900473ffffffffffffffffffffffffffffffffffffffff169080600101805461017290610dee565b80601f016020809104026020016040519081016040528092919081815260200182805461019e90610dee565b80156101eb5780601f106101c0576101008083540402835291602001916101eb565b820191906000526020600020905b8154815290600101906020018083116101ce57829003601f168201915b50505050509080600201805461020090610dee565b80601f016020809104026020016040519081016040528092919081815260200182805461022c90610dee565b80156102795780601f1061024e57610100808354040283529160200191610279565b820191906000526020600020905b81548152906001019060200180831161025c57829003601f168201915b5050505050908060030154908060040160009054906101000a900460ff16905085565b6000808273ffffffffffffffffffffffffffffffffffffffff1673ffffffffffffffffffffffffffffffffffffffff16815260200190815260200160002060040160009054906101000a900460ff1661032a576040517f08c379a000000000000000000000000000000000000000000000000000000000815260040161032190610e91565b60405180910390fd5b6000808273ffffffffffffffffffffffffffffffffffffffff1673ffffffffffffffffffffffffffffffffffffffff168152602001908152602001600020600301543411156103ae576040517f08c379a00000000000000000000000000000000000000000000000000000000081526004016103a590610efd565b60405180910390fd5b60008060008373ffffffffffffffffffffffffffffffffffffffff1673ffffffffffffffffffffffffffffffffffffffff16815260200190815260200160002060040160006101000a81548160ff02191690831515021790555060018060008373ffffffffffffffffffffffffffffffffffffffff1673ffffffffffffffffffffffffffffffffffffffff16815260200190815260200160002060006101000a81548160ff0219169083151502179055508073ffffffffffffffffffffffffffffffffffffffff163373ffffffffffffffffffffffffffffffffffffffff167f9d23af8b9d1be8b53f522a874eb1549bbe429942c24a64678029627bd144c2f46000808573ffffffffffffffffffffffffffffffffffffffff1673ffffffffffffffffffffffffffffffffffffffff1681526020019081526020016000206002016000808673ffffffffffffffffffffffffffffffffffffffff1673ffffffffffffffffffffffffffffffffffffffff1681526020019081526020016000206003015460405161053f929190610fb6565b60405180910390a350565b600160003373ffffffffffffffffffffffffffffffffffffffff1673ffffffffffffffffffffffffffffffffffffffff16815260200190815260200160002060009054906101000a900460ff166105d6576040517f08c379a00000000000000000000000000000000000000000000000000000000081526004016105cd90611032565b60405180910390fd5b60008060003373ffffffffffffffffffffffffffffffffffffffff1673ffffffffffffffffffffffffffffffffffffffff1681526020019081526020016000206003015490506000600160003373ffffffffffffffffffffffffffffffffffffffff1673ffffffffffffffffffffffffffffffffffffffff16815260200190815260200160002060006101000a81548160ff02191690831515021790555060016000803373ffffffffffffffffffffffffffffffffffffffff1673ffffffffffffffffffffffffffffffffffffffff16815260200190815260200160002060040160006101000a81548160ff02191690831515021790555060003373ffffffffffffffffffffffffffffffffffffffff16826040516106f490611083565b60006040518083038185875af1925050503d8060008114610731576040519150601f19603f3d011682016040523d82523d6000602084013e610736565b606091505b505090508061077a576040517f08c379a0000000000000000000000000000000000000000000000000000000008152600401610771906110e4565b60405180910390fd5b5050565b60016020528060005260406000206000915054906101000a900460ff1681565b600081116107e1576040517f08c379a00000000000000000000000000000000000000000000000000000000081526004016107d890611150565b60405180910390fd5b6000803373ffffffffffffffffffffffffffffffffffffffff1673ffffffffffffffffffffffffffffffffffffffff16815260200190815260200160002060040160009054906101000a900460ff1615610870576040517f08c379a0000000000000000000000000000000000000000000000000000000008152600401610867906111e2565b60405180910390fd5b6040518060a001604052803373ffffffffffffffffffffffffffffffffffffffff168152602001838152602001848152602001828152602001600115158152506000803373ffffffffffffffffffffffffffffffffffffffff1673ffffffffffffffffffffffffffffffffffffffff16815260200190815260200160002060008201518160000160006101000a81548173ffffffffffffffffffffffffffffffffffffffff021916908373ffffffffffffffffffffffffffffffffffffffff160217905550602082015181600101908161094a9190611399565b5060408201518160020190816109609190611399565b506060820151816003015560808201518160040160006101000a81548160ff0219169083151502179055509050503373ffffffffffffffffffffffffffffffffffffffff167f59ea8df9093c8853771eb9f97fbee3778d50e7a6dde8bad0ea498f2aedf22c608385846040516109d89392919061146b565b60405180910390a2505050565b6000604051905090565b600080fd5b600080fd5b600073ffffffffffffffffffffffffffffffffffffffff82169050919050565b6000610a24826109f9565b9050919050565b610a3481610a19565b8114610a3f57600080fd5b50565b600081359050610a5181610a2b565b92915050565b600060208284031215610a6d57610a6c6109ef565b5b6000610a7b84828501610a42565b91505092915050565b610a8d81610a19565b82525050565b600081519050919050565b600082825260208201905092915050565b60005b83811015610acd578082015181840152602081019050610ab2565b60008484015250505050565b6000601f19601f8301169050919050565b6000610af582610a93565b610aff8185610a9e565b9350610b0f818560208601610aaf565b610b1881610ad9565b840191505092915050565b6000819050919050565b610b3681610b23565b82525050565b60008115159050919050565b610b5181610b3c565b82525050565b600060a082019050610b6c6000830188610a84565b8181036020830152610b7e8187610aea565b90508181036040830152610b928186610aea565b9050610ba16060830185610b2d565b610bae6080830184610b48565b9695505050505050565b6000602082019050610bcd6000830184610b48565b92915050565b600080fd5b600080fd5b7f4e487b7100000000000000000000000000000000000000000000000000000000600052604160045260246000fd5b610c1582610ad9565b810181811067ffffffffffffffff82111715610c3457610c33610bdd565b5b80604052505050565b6000610c476109e5565b9050610c538282610c0c565b919050565b600067ffffffffffffffff821115610c7357610c72610bdd565b5b610c7c82610ad9565b9050602081019050919050565b82818337600083830152505050565b6000610cab610ca684610c58565b610c3d565b905082815260208101848484011115610cc757610cc6610bd8565b5b610cd2848285610c89565b509392505050565b600082601f830112610cef57610cee610bd3565b5b8135610cff848260208601610c98565b91505092915050565b610d1181610b23565b8114610d1c57600080fd5b50565b600081359050610d2e81610d08565b92915050565b600080600060608486031215610d4d57610d4c6109ef565b5b600084013567ffffffffffffffff811115610d6b57610d6a6109f4565b5b610d7786828701610cda565b935050602084013567ffffffffffffffff811115610d9857610d976109f4565b5b610da486828701610cda565b9250506040610db586828701610d1f565b9150509250925092565b7f4e487b7100000000000000000000000000000000000000000000000000000000600052602260045260246000fd5b60006002820490506001821680610e0657607f821691505b602082108103610e1957610e18610dbf565b5b50919050565b7f447269766572206973206e6f74206f66666572696e6720612072696465206f7260008201527f20616c726561647920626f6f6b65640000000000000000000000000000000000602082015250565b6000610e7b602f83610a9e565b9150610e8682610e1f565b604082019050919050565b60006020820190508181036000830152610eaa81610e6e565b9050919050565b7f496e73756666696369656e74207061796d656e74000000000000000000000000600082015250565b6000610ee7601483610a9e565b9150610ef282610eb1565b602082019050919050565b60006020820190508181036000830152610f1681610eda565b9050919050565b60008190508160005260206000209050919050565b60008154610f3f81610dee565b610f498186610a9e565b94506001821660008114610f645760018114610f7a57610fad565b60ff198316865281151560200286019350610fad565b610f8385610f1d565b60005b83811015610fa557815481890152600182019150602081019050610f86565b808801955050505b50505092915050565b60006040820190508181036000830152610fd08185610f32565b9050610fdf6020830184610b2d565b9392505050565b7f4e6f207061796d656e7420746f20776974686472617700000000000000000000600082015250565b600061101c601683610a9e565b915061102782610fe6565b602082019050919050565b6000602082019050818103600083015261104b8161100f565b9050919050565b600081905092915050565b50565b600061106d600083611052565b91506110788261105d565b600082019050919050565b600061108e82611060565b9150819050919050565b7f5061796d656e74207769746864726177616c206661696c656400000000000000600082015250565b60006110ce601983610a9e565b91506110d982611098565b602082019050919050565b600060208201905081810360008301526110fd816110c1565b9050919050565b7f5072696365206d7573742062652067726561746572207468616e207a65726f00600082015250565b600061113a601f83610a9e565b915061114582611104565b602082019050919050565b600060208201905081810360008301526111698161112d565b9050919050565b7f596f75206861766520616c72656164792072656769737465726564206120726960008201527f6465000000000000000000000000000000000000000000000000000000000000602082015250565b60006111cc602283610a9e565b91506111d782611170565b604082019050919050565b600060208201905081810360008301526111fb816111bf565b9050919050565b60006020601f8301049050919050565b600082821b905092915050565b60006008830261124f7fffffffffffffffffffffffffffffffffffffffffffffffffffffffffffffffff82611212565b6112598683611212565b95508019841693508086168417925050509392505050565b6000819050919050565b600061129661129161128c84610b23565b611271565b610b23565b9050919050565b6000819050919050565b6112b08361127b565b6112c46112bc8261129d565b84845461121f565b825550505050565b600090565b6112d96112cc565b6112e48184846112a7565b505050565b5b81811015611308576112fd6000826112d1565b6001810190506112ea565b5050565b601f82111561134d5761131e81610f1d565b61132784611202565b81016020851015611336578190505b61134a61134285611202565b8301826112e9565b50505b505050565b600082821c905092915050565b600061137060001984600802611352565b1980831691505092915050565b6000611389838361135f565b9150826002028217905092915050565b6113a282610a93565b67ffffffffffffffff8111156113bb576113ba610bdd565b5b6113c58254610dee565b6113d082828561130c565b600060209050601f83116001811461140357600084156113f1578287015190505b6113fb858261137d565b865550611463565b601f19841661141186610f1d565b60005b8281101561143957848901518255600182019150602085019450602081019050611414565b868310156114565784890151611452601f89168261135f565b8355505b6001600288020188555050505b505050505050565b600060608201905081810360008301526114858186610aea565b905081810360208301526114998185610aea565b90506114a86040830184610b2d565b94935050505056fea26469706673582212200a0904f0eea59c270de63e59d9de2751975730e629a3a727066e8cb17308d54364736f6c63430008110033",
  "immutableReferences": {},
  "source": "// SPDX-License-Identifier: MIT\r\npragma solidity ^0.8.0;\r\n\r\ncontract CarpoolContract {\r\n\r\n  \r\n\r\n    struct Ride {\r\n        address driver;\r\n        string boarding;\r\n        string destination;\r\n        uint256 price;\r\n        bool isAvailable;\r\n    }\r\n\r\n    mapping(address => Ride) public rides;\r\n    \r\n    mapping(address => bool) public passengers;\r\n\r\n    event RideRegistered(address indexed driver, string boarding, string destination, uint256 price);\r\n    event RideBooked(address indexed passenger, address indexed driver, string destination, uint256 price);\r\n\r\n\r\n\r\n    function registerRide(string memory _destination,string memory _boarding, uint256 _price) public {\r\n        require(_price > 0, \"Price must be greater than zero\");\r\n        require(!rides[msg.sender].isAvailable, \"You have already registered a ride\");\r\n\r\n// registering ride from current account\r\n        rides[msg.sender] = Ride({\r\n            boarding:_boarding,\r\n            driver: msg.sender,\r\n            destination: _destination,\r\n            price: _price,\r\n            isAvailable: true\r\n        });\r\n\r\n        emit RideRegistered(msg.sender,_boarding, _destination, _price);\r\n    }\r\n\r\n\r\n\r\n    function bookRide(address _driver) public payable {\r\n        require(rides[_driver].isAvailable, \"Driver is not offering a ride or already booked\");\r\n        require(msg.value <= rides[_driver].price, \"Insufficient payment\");\r\n\r\n        rides[_driver].isAvailable = false;\r\n        passengers[_driver] = true;\r\n\r\n        emit RideBooked(msg.sender, _driver, rides[_driver].destination, rides[_driver].price);\r\n    }\r\n\r\n    function withdrawPayment() public {\r\n        require(passengers[msg.sender], \"No payment to withdraw\");\r\n\r\n        uint256 payment = rides[msg.sender].price;\r\n        passengers[msg.sender] = false;\r\n        rides[msg.sender].isAvailable = true;\r\n\r\n        (bool success, ) = msg.sender.call{value: payment}(\"\");\r\n        require(success, \"Payment withdrawal failed\");\r\n    }\r\n}\r\n\r\n",
  "sourcePath": "C:\\Users\\braje\\Desktop\\projects\\P2P-Car-Pooling\\smart-contract\\contracts\\CarpoolContract.sol",
  "compiler": {
    "name": "solc",
    "version": "0.8.17+commit.8df45f5f.Emscripten.clang"
  },
  "schemaVersion": "3.4.15",
  "updatedAt": "2023-08-12T10:37:33.493Z",
  "networkType": "ethereum",
  "devdoc": {
    "kind": "dev",
    "methods": {},
    "version": 1
  },
  "userdoc": {
    "kind": "user",
    "methods": {},
    "version": 1
  }
}