{
  "contractName": "CarpoolContract",
  "abi": [
    {
      "inputs": [],
      "stateMutability": "nonpayable",
      "type": "constructor"
    },
    {
      "anonymous": false,
      "inputs": [
        {
          "indexed": true,
          "internalType": "address",
          "name": "passenger",
          "type": "address"
        },
        {
          "indexed": true,
          "internalType": "address",
          "name": "driver",
          "type": "address"
        },
        {
          "indexed": false,
          "internalType": "string",
          "name": "destination",
          "type": "string"
        },
        {
          "indexed": false,
          "internalType": "uint256",
          "name": "price",
          "type": "uint256"
        }
      ],
      "name": "RideBooked",
      "type": "event"
    },
    {
      "anonymous": false,
      "inputs": [
        {
          "indexed": true,
          "internalType": "address",
          "name": "driver",
          "type": "address"
        },
        {
          "indexed": false,
          "internalType": "string",
          "name": "boarding",
          "type": "string"
        },
        {
          "indexed": false,
          "internalType": "string",
          "name": "destination",
          "type": "string"
        },
        {
          "indexed": false,
          "internalType": "uint256",
          "name": "price",
          "type": "uint256"
        }
      ],
      "name": "RideRegistered",
      "type": "event"
    },
    {
      "inputs": [],
      "name": "owner",
      "outputs": [
        {
          "internalType": "address",
          "name": "",
          "type": "address"
        }
      ],
      "stateMutability": "view",
      "type": "function"
    },
    {
      "inputs": [
        {
          "internalType": "address",
          "name": "",
          "type": "address"
        }
      ],
      "name": "passengers",
      "outputs": [
        {
          "internalType": "bool",
          "name": "",
          "type": "bool"
        }
      ],
      "stateMutability": "view",
      "type": "function"
    },
    {
      "inputs": [
        {
          "internalType": "address",
          "name": "",
          "type": "address"
        }
      ],
      "name": "rides",
      "outputs": [
        {
          "internalType": "address",
          "name": "driver",
          "type": "address"
        },
        {
          "internalType": "string",
          "name": "boarding",
          "type": "string"
        },
        {
          "internalType": "string",
          "name": "destination",
          "type": "string"
        },
        {
          "internalType": "uint256",
          "name": "price",
          "type": "uint256"
        },
        {
          "internalType": "bool",
          "name": "isAvailable",
          "type": "bool"
        }
      ],
      "stateMutability": "view",
      "type": "function"
    },
    {
      "inputs": [
        {
          "internalType": "address",
          "name": "",
          "type": "address"
        }
      ],
      "name": "users",
      "outputs": [
        {
          "internalType": "address",
          "name": "userAddress",
          "type": "address"
        },
        {
          "internalType": "string",
          "name": "userName",
          "type": "string"
        },
        {
          "internalType": "string",
          "name": "userGender",
          "type": "string"
        },
        {
          "internalType": "string",
          "name": "userContactNo",
          "type": "string"
        },
        {
          "internalType": "uint256",
          "name": "userId",
          "type": "uint256"
        },
        {
          "internalType": "uint256",
          "name": "totalUsers",
          "type": "uint256"
        }
      ],
      "stateMutability": "view",
      "type": "function"
    },
    {
      "inputs": [],
      "name": "getOwner",
      "outputs": [
        {
          "internalType": "address",
          "name": "",
          "type": "address"
        }
      ],
      "stateMutability": "view",
      "type": "function"
    },
    {
      "inputs": [],
      "name": "getTotalUsers",
      "outputs": [
        {
          "internalType": "uint256",
          "name": "",
          "type": "uint256"
        }
      ],
      "stateMutability": "view",
      "type": "function"
    },
    {
      "inputs": [
        {
          "internalType": "address",
          "name": "_userAddress",
          "type": "address"
        }
      ],
      "name": "getUserName",
      "outputs": [
        {
          "internalType": "string",
          "name": "",
          "type": "string"
        }
      ],
      "stateMutability": "view",
      "type": "function"
    },
    {
      "inputs": [
        {
          "internalType": "string",
          "name": "_name",
          "type": "string"
        },
        {
          "internalType": "string",
          "name": "_gender",
          "type": "string"
        },
        {
          "internalType": "string",
          "name": "_contactNo",
          "type": "string"
        }
      ],
      "name": "registerMe",
      "outputs": [],
      "stateMutability": "nonpayable",
      "type": "function"
    },
    {
      "inputs": [
        {
          "internalType": "string",
          "name": "_destination",
          "type": "string"
        },
        {
          "internalType": "string",
          "name": "_boarding",
          "type": "string"
        },
        {
          "internalType": "uint256",
          "name": "_price",
          "type": "uint256"
        }
      ],
      "name": "registerRide",
      "outputs": [],
      "stateMutability": "nonpayable",
      "type": "function"
    },
    {
      "inputs": [
        {
          "internalType": "address",
          "name": "_driver",
          "type": "address"
        }
      ],
      "name": "bookRide",
      "outputs": [],
      "stateMutability": "payable",
      "type": "function"
    },
    {
      "inputs": [],
      "name": "withdrawPayment",
      "outputs": [],
      "stateMutability": "nonpayable",
      "type": "function"
    }
  ],
  "bytecode": "0x60806040523480156200001157600080fd5b50336000806101000a81548173ffffffffffffffffffffffffffffffffffffffff021916908373ffffffffffffffffffffffffffffffffffffffff1602179055506040518060c001604052803373ffffffffffffffffffffffffffffffffffffffff1681526020016040518060400160405280600f81526020017f4272616a656e6472612053756d616e000000000000000000000000000000000081525081526020016040518060400160405280600481526020017f4d616c650000000000000000000000000000000000000000000000000000000081525081526020016040518060400160405280601981526020017f732e6272616a656e6472613037303740676d61696c2e636f6d000000000000008152508152602001600081526020016000815250600160003373ffffffffffffffffffffffffffffffffffffffff1673ffffffffffffffffffffffffffffffffffffffff16815260200190815260200160002060008201518160000160006101000a81548173ffffffffffffffffffffffffffffffffffffffff021916908373ffffffffffffffffffffffffffffffffffffffff1602179055506020820151816001019081620001d391906200049b565b506040820151816002019081620001eb91906200049b565b5060608201518160030190816200020391906200049b565b506080820151816004015560a0820151816005015590505062000582565b600081519050919050565b7f4e487b7100000000000000000000000000000000000000000000000000000000600052604160045260246000fd5b7f4e487b7100000000000000000000000000000000000000000000000000000000600052602260045260246000fd5b60006002820490506001821680620002a357607f821691505b602082108103620002b957620002b86200025b565b5b50919050565b60008190508160005260206000209050919050565b60006020601f8301049050919050565b600082821b905092915050565b600060088302620003237fffffffffffffffffffffffffffffffffffffffffffffffffffffffffffffffff82620002e4565b6200032f8683620002e4565b95508019841693508086168417925050509392505050565b6000819050919050565b6000819050919050565b60006200037c62000376620003708462000347565b62000351565b62000347565b9050919050565b6000819050919050565b62000398836200035b565b620003b0620003a78262000383565b848454620002f1565b825550505050565b600090565b620003c7620003b8565b620003d48184846200038d565b505050565b5b81811015620003fc57620003f0600082620003bd565b600181019050620003da565b5050565b601f8211156200044b576200041581620002bf565b6200042084620002d4565b8101602085101562000430578190505b620004486200043f85620002d4565b830182620003d9565b50505b505050565b600082821c905092915050565b6000620004706000198460080262000450565b1980831691505092915050565b60006200048b83836200045d565b9150826002028217905092915050565b620004a68262000221565b67ffffffffffffffff811115620004c257620004c16200022c565b5b620004ce82546200028a565b620004db82828562000400565b600060209050601f831160018114620005135760008415620004fe578287015190505b6200050a85826200047d565b8655506200057a565b601f1984166200052386620002bf565b60005b828110156200054d5784890151825560018201915060208501945060208101905062000526565b868310156200056d578489015162000569601f8916826200045d565b8355505b6001600288020188555050505b505050505050565b611dc680620005926000396000f3fe60806040526004361061009c5760003560e01c80639be572f6116100645780639be572f61461017d578063a118babd146101a8578063a87430ba146101bf578063ce164fdd14610201578063d84f55ee1461023e578063ed0addbf1461027b5761009c565b80631e8d3dcb146100a1578063505a0efa146100e2578063893d20e8146100fe5780638da5cb5b146101295780639172f17b14610154575b600080fd5b3480156100ad57600080fd5b506100c860048036038101906100c3919061115f565b6102a4565b6040516100d995949392919061125f565b60405180910390f35b6100fc60048036038101906100f7919061115f565b610417565b005b34801561010a57600080fd5b506101136106cb565b60405161012091906112c0565b60405180910390f35b34801561013557600080fd5b5061013e6106f4565b60405161014b91906112c0565b60405180910390f35b34801561016057600080fd5b5061017b60048036038101906101769190611410565b610718565b005b34801561018957600080fd5b5061019261091b565b60405161019f91906114b7565b60405180910390f35b3480156101b457600080fd5b506101bd610986565b005b3480156101cb57600080fd5b506101e660048036038101906101e1919061115f565b610bbc565b6040516101f8969594939291906114d2565b60405180910390f35b34801561020d57600080fd5b506102286004803603810190610223919061115f565b610db0565b6040516102359190611548565b60405180910390f35b34801561024a57600080fd5b506102656004803603810190610260919061115f565b610dd0565b6040516102729190611563565b60405180910390f35b34801561028757600080fd5b506102a2600480360381019061029d91906115b1565b610ea4565b005b60026020528060005260406000206000915090508060000160009054906101000a900473ffffffffffffffffffffffffffffffffffffffff16908060010180546102ed9061166b565b80601f01602080910402602001604051908101604052809291908181526020018280546103199061166b565b80156103665780601f1061033b57610100808354040283529160200191610366565b820191906000526020600020905b81548152906001019060200180831161034957829003601f168201915b50505050509080600201805461037b9061166b565b80601f01602080910402602001604051908101604052809291908181526020018280546103a79061166b565b80156103f45780601f106103c9576101008083540402835291602001916103f4565b820191906000526020600020905b8154815290600101906020018083116103d757829003601f168201915b5050505050908060030154908060040160009054906101000a900460ff16905085565b600260008273ffffffffffffffffffffffffffffffffffffffff1673ffffffffffffffffffffffffffffffffffffffff16815260200190815260200160002060040160009054906101000a900460ff166104a6576040517f08c379a000000000000000000000000000000000000000000000000000000000815260040161049d9061170e565b60405180910390fd5b600260008273ffffffffffffffffffffffffffffffffffffffff1673ffffffffffffffffffffffffffffffffffffffff1681526020019081526020016000206003015434111561052b576040517f08c379a00000000000000000000000000000000000000000000000000000000081526004016105229061177a565b60405180910390fd5b6000600260008373ffffffffffffffffffffffffffffffffffffffff1673ffffffffffffffffffffffffffffffffffffffff16815260200190815260200160002060040160006101000a81548160ff0219169083151502179055506001600360008373ffffffffffffffffffffffffffffffffffffffff1673ffffffffffffffffffffffffffffffffffffffff16815260200190815260200160002060006101000a81548160ff0219169083151502179055508073ffffffffffffffffffffffffffffffffffffffff163373ffffffffffffffffffffffffffffffffffffffff167f9d23af8b9d1be8b53f522a874eb1549bbe429942c24a64678029627bd144c2f4600260008573ffffffffffffffffffffffffffffffffffffffff1673ffffffffffffffffffffffffffffffffffffffff168152602001908152602001600020600201600260008673ffffffffffffffffffffffffffffffffffffffff1673ffffffffffffffffffffffffffffffffffffffff168152602001908152602001600020600301546040516106c0929190611833565b60405180910390a350565b60008060009054906101000a900473ffffffffffffffffffffffffffffffffffffffff16905090565b60008054906101000a900473ffffffffffffffffffffffffffffffffffffffff1681565b6040518060c001604052803373ffffffffffffffffffffffffffffffffffffffff16815260200184815260200183815260200182815260200160018060008060009054906101000a900473ffffffffffffffffffffffffffffffffffffffff1673ffffffffffffffffffffffffffffffffffffffff1673ffffffffffffffffffffffffffffffffffffffff168152602001908152602001600020600501546107c09190611892565b815260200160018060008060009054906101000a900473ffffffffffffffffffffffffffffffffffffffff1673ffffffffffffffffffffffffffffffffffffffff1673ffffffffffffffffffffffffffffffffffffffff168152602001908152602001600020600501546108349190611892565b815250600160003373ffffffffffffffffffffffffffffffffffffffff1673ffffffffffffffffffffffffffffffffffffffff16815260200190815260200160002060008201518160000160006101000a81548173ffffffffffffffffffffffffffffffffffffffff021916908373ffffffffffffffffffffffffffffffffffffffff16021790555060208201518160010190816108d29190611a5d565b5060408201518160020190816108e89190611a5d565b5060608201518160030190816108fe9190611a5d565b506080820151816004015560a08201518160050155905050505050565b6000600160008060009054906101000a900473ffffffffffffffffffffffffffffffffffffffff1673ffffffffffffffffffffffffffffffffffffffff1673ffffffffffffffffffffffffffffffffffffffff16815260200190815260200160002060050154905090565b600360003373ffffffffffffffffffffffffffffffffffffffff1673ffffffffffffffffffffffffffffffffffffffff16815260200190815260200160002060009054906101000a900460ff16610a12576040517f08c379a0000000000000000000000000000000000000000000000000000000008152600401610a0990611b7b565b60405180910390fd5b6000600260003373ffffffffffffffffffffffffffffffffffffffff1673ffffffffffffffffffffffffffffffffffffffff1681526020019081526020016000206003015490506000600360003373ffffffffffffffffffffffffffffffffffffffff1673ffffffffffffffffffffffffffffffffffffffff16815260200190815260200160002060006101000a81548160ff0219169083151502179055506001600260003373ffffffffffffffffffffffffffffffffffffffff1673ffffffffffffffffffffffffffffffffffffffff16815260200190815260200160002060040160006101000a81548160ff02191690831515021790555060003373ffffffffffffffffffffffffffffffffffffffff1682604051610b3290611bcc565b60006040518083038185875af1925050503d8060008114610b6f576040519150601f19603f3d011682016040523d82523d6000602084013e610b74565b606091505b5050905080610bb8576040517f08c379a0000000000000000000000000000000000000000000000000000000008152600401610baf90611c2d565b60405180910390fd5b5050565b60016020528060005260406000206000915090508060000160009054906101000a900473ffffffffffffffffffffffffffffffffffffffff1690806001018054610c059061166b565b80601f0160208091040260200160405190810160405280929190818152602001828054610c319061166b565b8015610c7e5780601f10610c5357610100808354040283529160200191610c7e565b820191906000526020600020905b815481529060010190602001808311610c6157829003601f168201915b505050505090806002018054610c939061166b565b80601f0160208091040260200160405190810160405280929190818152602001828054610cbf9061166b565b8015610d0c5780601f10610ce157610100808354040283529160200191610d0c565b820191906000526020600020905b815481529060010190602001808311610cef57829003601f168201915b505050505090806003018054610d219061166b565b80601f0160208091040260200160405190810160405280929190818152602001828054610d4d9061166b565b8015610d9a5780601f10610d6f57610100808354040283529160200191610d9a565b820191906000526020600020905b815481529060010190602001808311610d7d57829003601f168201915b5050505050908060040154908060050154905086565b60036020528060005260406000206000915054906101000a900460ff1681565b6060600160008373ffffffffffffffffffffffffffffffffffffffff1673ffffffffffffffffffffffffffffffffffffffff1681526020019081526020016000206001018054610e1f9061166b565b80601f0160208091040260200160405190810160405280929190818152602001828054610e4b9061166b565b8015610e985780601f10610e6d57610100808354040283529160200191610e98565b820191906000526020600020905b815481529060010190602001808311610e7b57829003601f168201915b50505050509050919050565b60008111610ee7576040517f08c379a0000000000000000000000000000000000000000000000000000000008152600401610ede90611c99565b60405180910390fd5b600260003373ffffffffffffffffffffffffffffffffffffffff1673ffffffffffffffffffffffffffffffffffffffff16815260200190815260200160002060040160009054906101000a900460ff1615610f77576040517f08c379a0000000000000000000000000000000000000000000000000000000008152600401610f6e90611d2b565b60405180910390fd5b6040518060a001604052803373ffffffffffffffffffffffffffffffffffffffff16815260200183815260200184815260200182815260200160011515815250600260003373ffffffffffffffffffffffffffffffffffffffff1673ffffffffffffffffffffffffffffffffffffffff16815260200190815260200160002060008201518160000160006101000a81548173ffffffffffffffffffffffffffffffffffffffff021916908373ffffffffffffffffffffffffffffffffffffffff16021790555060208201518160010190816110529190611a5d565b5060408201518160020190816110689190611a5d565b506060820151816003015560808201518160040160006101000a81548160ff0219169083151502179055509050503373ffffffffffffffffffffffffffffffffffffffff167f59ea8df9093c8853771eb9f97fbee3778d50e7a6dde8bad0ea498f2aedf22c608385846040516110e093929190611d4b565b60405180910390a2505050565b6000604051905090565b600080fd5b600080fd5b600073ffffffffffffffffffffffffffffffffffffffff82169050919050565b600061112c82611101565b9050919050565b61113c81611121565b811461114757600080fd5b50565b60008135905061115981611133565b92915050565b600060208284031215611175576111746110f7565b5b60006111838482850161114a565b91505092915050565b61119581611121565b82525050565b600081519050919050565b600082825260208201905092915050565b60005b838110156111d55780820151818401526020810190506111ba565b60008484015250505050565b6000601f19601f8301169050919050565b60006111fd8261119b565b61120781856111a6565b93506112178185602086016111b7565b611220816111e1565b840191505092915050565b6000819050919050565b61123e8161122b565b82525050565b60008115159050919050565b61125981611244565b82525050565b600060a082019050611274600083018861118c565b818103602083015261128681876111f2565b9050818103604083015261129a81866111f2565b90506112a96060830185611235565b6112b66080830184611250565b9695505050505050565b60006020820190506112d5600083018461118c565b92915050565b600080fd5b600080fd5b7f4e487b7100000000000000000000000000000000000000000000000000000000600052604160045260246000fd5b61131d826111e1565b810181811067ffffffffffffffff8211171561133c5761133b6112e5565b5b80604052505050565b600061134f6110ed565b905061135b8282611314565b919050565b600067ffffffffffffffff82111561137b5761137a6112e5565b5b611384826111e1565b9050602081019050919050565b82818337600083830152505050565b60006113b36113ae84611360565b611345565b9050828152602081018484840111156113cf576113ce6112e0565b5b6113da848285611391565b509392505050565b600082601f8301126113f7576113f66112db565b5b81356114078482602086016113a0565b91505092915050565b600080600060608486031215611429576114286110f7565b5b600084013567ffffffffffffffff811115611447576114466110fc565b5b611453868287016113e2565b935050602084013567ffffffffffffffff811115611474576114736110fc565b5b611480868287016113e2565b925050604084013567ffffffffffffffff8111156114a1576114a06110fc565b5b6114ad868287016113e2565b9150509250925092565b60006020820190506114cc6000830184611235565b92915050565b600060c0820190506114e7600083018961118c565b81810360208301526114f981886111f2565b9050818103604083015261150d81876111f2565b9050818103606083015261152181866111f2565b90506115306080830185611235565b61153d60a0830184611235565b979650505050505050565b600060208201905061155d6000830184611250565b92915050565b6000602082019050818103600083015261157d81846111f2565b905092915050565b61158e8161122b565b811461159957600080fd5b50565b6000813590506115ab81611585565b92915050565b6000806000606084860312156115ca576115c96110f7565b5b600084013567ffffffffffffffff8111156115e8576115e76110fc565b5b6115f4868287016113e2565b935050602084013567ffffffffffffffff811115611615576116146110fc565b5b611621868287016113e2565b92505060406116328682870161159c565b9150509250925092565b7f4e487b7100000000000000000000000000000000000000000000000000000000600052602260045260246000fd5b6000600282049050600182168061168357607f821691505b6020821081036116965761169561163c565b5b50919050565b7f447269766572206973206e6f74206f66666572696e6720612072696465206f7260008201527f20616c726561647920626f6f6b65640000000000000000000000000000000000602082015250565b60006116f8602f836111a6565b91506117038261169c565b604082019050919050565b60006020820190508181036000830152611727816116eb565b9050919050565b7f496e73756666696369656e74207061796d656e74000000000000000000000000600082015250565b60006117646014836111a6565b915061176f8261172e565b602082019050919050565b6000602082019050818103600083015261179381611757565b9050919050565b60008190508160005260206000209050919050565b600081546117bc8161166b565b6117c681866111a6565b945060018216600081146117e157600181146117f75761182a565b60ff19831686528115156020028601935061182a565b6118008561179a565b60005b8381101561182257815481890152600182019150602081019050611803565b808801955050505b50505092915050565b6000604082019050818103600083015261184d81856117af565b905061185c6020830184611235565b9392505050565b7f4e487b7100000000000000000000000000000000000000000000000000000000600052601160045260246000fd5b600061189d8261122b565b91506118a88361122b565b92508282019050808211156118c0576118bf611863565b5b92915050565b60006020601f8301049050919050565b600082821b905092915050565b6000600883026119137fffffffffffffffffffffffffffffffffffffffffffffffffffffffffffffffff826118d6565b61191d86836118d6565b95508019841693508086168417925050509392505050565b6000819050919050565b600061195a6119556119508461122b565b611935565b61122b565b9050919050565b6000819050919050565b6119748361193f565b61198861198082611961565b8484546118e3565b825550505050565b600090565b61199d611990565b6119a881848461196b565b505050565b5b818110156119cc576119c1600082611995565b6001810190506119ae565b5050565b601f821115611a11576119e28161179a565b6119eb846118c6565b810160208510156119fa578190505b611a0e611a06856118c6565b8301826119ad565b50505b505050565b600082821c905092915050565b6000611a3460001984600802611a16565b1980831691505092915050565b6000611a4d8383611a23565b9150826002028217905092915050565b611a668261119b565b67ffffffffffffffff811115611a7f57611a7e6112e5565b5b611a89825461166b565b611a948282856119d0565b600060209050601f831160018114611ac75760008415611ab5578287015190505b611abf8582611a41565b865550611b27565b601f198416611ad58661179a565b60005b82811015611afd57848901518255600182019150602085019450602081019050611ad8565b86831015611b1a5784890151611b16601f891682611a23565b8355505b6001600288020188555050505b505050505050565b7f4e6f207061796d656e7420746f20776974686472617700000000000000000000600082015250565b6000611b656016836111a6565b9150611b7082611b2f565b602082019050919050565b60006020820190508181036000830152611b9481611b58565b9050919050565b600081905092915050565b50565b6000611bb6600083611b9b565b9150611bc182611ba6565b600082019050919050565b6000611bd782611ba9565b9150819050919050565b7f5061796d656e74207769746864726177616c206661696c656400000000000000600082015250565b6000611c176019836111a6565b9150611c2282611be1565b602082019050919050565b60006020820190508181036000830152611c4681611c0a565b9050919050565b7f5072696365206d7573742062652067726561746572207468616e207a65726f00600082015250565b6000611c83601f836111a6565b9150611c8e82611c4d565b602082019050919050565b60006020820190508181036000830152611cb281611c76565b9050919050565b7f596f75206861766520616c72656164792072656769737465726564206120726960008201527f6465000000000000000000000000000000000000000000000000000000000000602082015250565b6000611d156022836111a6565b9150611d2082611cb9565b604082019050919050565b60006020820190508181036000830152611d4481611d08565b9050919050565b60006060820190508181036000830152611d6581866111f2565b90508181036020830152611d7981856111f2565b9050611d886040830184611235565b94935050505056fea2646970667358221220bdba6305f2f3daf817bceed6dc262b93e6b2e4f8204410b1e6edf6f68c70a41a64736f6c63430008110033",
  "immutableReferences": {},
  "source": "// SPDX-License-Identifier: MIT\r\npragma solidity ^0.8.0;\r\n\r\ncontract CarpoolContract {\r\n\r\n    address public owner;\r\n    function getOwner() public view returns (address) {\r\n        return owner;\r\n    }\r\n\r\n\r\n// will manage users\r\n    struct Users{\r\n        address userAddress;\r\n        string userName;\r\n        string userGender;\r\n        string userContactNo;\r\n        uint256 userId;\r\n        uint256 totalUsers;\r\n    }\r\n        function getTotalUsers() public view returns (uint256) {\r\n        return users[owner].totalUsers;\r\n    }\r\n\r\n    // mapping Users to address for unique registration from one address\r\n    mapping(address => Users) public users;\r\n\r\n\r\n// testing \r\n    function getUserName(address _userAddress) public view returns (string memory) {\r\n        return users[_userAddress].userName;\r\n    }\r\n\r\n    function registerMe(string memory _name, string memory _gender, string memory _contactNo) public {\r\n       \r\n\r\n        users[msg.sender] = Users( \r\n            {\r\n                userName:_name,\r\n                userGender:_gender,\r\n                userContactNo:_contactNo,\r\n                userAddress:msg.sender,\r\n                userId: users[owner].totalUsers + 1,\r\n                totalUsers: users[owner].totalUsers + 1\r\n            }\r\n        );\r\n\r\n    }\r\n\r\n       constructor ()  {\r\n\r\n        //initalizing contract as 1st user\r\n         owner = msg.sender;\r\n         users[msg.sender] = Users( \r\n            {\r\n                userName:\"Brajendra Suman\",\r\n                userGender:\"Male\",\r\n                userContactNo:\"s.brajendra0707@gmail.com\",\r\n                userAddress:msg.sender,\r\n                userId: 0,\r\n                totalUsers:0\r\n                // assigned total users to 0\r\n            }\r\n         );\r\n\r\n\r\n      \r\n   }\r\n\r\n  \r\n\r\n    struct Ride {\r\n        address driver;\r\n        string boarding;\r\n        string destination;\r\n        uint256 price;\r\n        bool isAvailable;\r\n    }\r\n\r\n    mapping(address => Ride) public rides;\r\n    \r\n    mapping(address => bool) public passengers;\r\n\r\n    event RideRegistered(address indexed driver, string boarding, string destination, uint256 price);\r\n    event RideBooked(address indexed passenger, address indexed driver, string destination, uint256 price);\r\n\r\n\r\n\r\n    function registerRide(string memory _destination,string memory _boarding, uint256 _price) public {\r\n        require(_price > 0, \"Price must be greater than zero\");\r\n        require(!rides[msg.sender].isAvailable, \"You have already registered a ride\");\r\n\r\n// registering ride from current account\r\n        rides[msg.sender] = Ride({\r\n            boarding:_boarding,\r\n            driver: msg.sender,\r\n            destination: _destination,\r\n            price: _price,\r\n            isAvailable: true\r\n        });\r\n\r\n        emit RideRegistered(msg.sender,_boarding, _destination, _price);\r\n    }\r\n\r\n\r\n\r\n    function bookRide(address _driver) public payable {\r\n        require(rides[_driver].isAvailable, \"Driver is not offering a ride or already booked\");\r\n        require(msg.value <= rides[_driver].price, \"Insufficient payment\");\r\n\r\n        rides[_driver].isAvailable = false;\r\n        passengers[_driver] = true;\r\n\r\n        emit RideBooked(msg.sender, _driver, rides[_driver].destination, rides[_driver].price);\r\n    }\r\n\r\n    function withdrawPayment() public {\r\n        require(passengers[msg.sender], \"No payment to withdraw\");\r\n\r\n        uint256 payment = rides[msg.sender].price;\r\n        passengers[msg.sender] = false;\r\n        rides[msg.sender].isAvailable = true;\r\n\r\n        (bool success, ) = msg.sender.call{value: payment}(\"\");\r\n        require(success, \"Payment withdrawal failed\");\r\n    }\r\n}\r\n\r\n",
  "sourcePath": "C:\\Users\\braje\\Desktop\\projects\\P2P-Car-Pooling\\smart-contract\\contracts\\CarpoolContract.sol",
  "compiler": {
    "name": "solc",
    "version": "0.8.17+commit.8df45f5f.Emscripten.clang"
  },
  "schemaVersion": "3.4.15",
  "updatedAt": "2023-08-12T13:51:36.942Z",
  "devdoc": {
    "kind": "dev",
    "methods": {},
    "version": 1
  },
  "userdoc": {
    "kind": "user",
    "methods": {},
    "version": 1
  }
}